:0300000002096F83
:0C096F00787FE4F6D8FD7581200209B6FF
:100A4D0010103F065B4F666D7D077F6F777C395EBB
:0D0A5D007971060ABFDFEFFBFDFE01090005
:100A6B00E4FEC291EF30E704D2928002C292D2919F
:0C0A7B00EF25E0FF0EBE08EAC290D2900A
:010A8700224C
:100A8800E4FEC2B6EF30E704D2B78002C2B7D2B6EE
:0C0A9800EF25E0FF0EBE08EAC2B5D2B5A3
:010AA400222F
:0B0AA5007E047D5200DDFDDEF9DFF570
:010AB0002223
:100800007FFC120A6BAF0A120A888510A075892036
:10081000758DF3758BF3D28E438780C29FD29ED2A3
:100820009CD2ACD2AF75800FAC8053040FEC640F38
:1008300060227F14120AA5EC640F601BE580540F40
:10084000FC4304F08C80AF805307F053040FEC2F6F
:10085000F5208003E4F509E520120A2708BF770890
:10086000AF7B089F7D08907E08FAB708EEBB08DFD3
:10087000BD08CFBE092AD7091EDB0912DD0906DE35
:10088000095AE7094EEB0942ED0936EE000009640A
:10089000E5096003020964759930F508020964E509
:1008A000096003020964759931750801020964E55C
:1008B000096003020964759932750802020964E54A
:1008C000096003020964759933750803020964E538
:1008D000096003020964759934750804020964E526
:1008E0000960030209647599357508058076E50984
:1008F0007072759936750806806AE5097066759993
:1009000037750807805EE509705A759938750808CB
:100910008052E509704E7599397508098046E509D8
:10092000704275994175080A803AE50970367599E3
:100930004275080B802EE509702A75994375080CDD
:100940008022E509701E75994475080D8016E50929
:10095000701275994575080E800AE509700675993B
:0F0960004675080F74102508F8E6F5A002082563
:030023000209FBD4
:1009FB00C0E0C0D075D000C000309905C299750910
:100A0B0001309811C298750901E59924D0F5082495
:0C0A1B0010F8E6F5A0D000D0D0D0E032FA
:10097B00020800E493A3F8E493A34003F68001F28A
:10098B0008DFF48029E493A3F85407240CC8C3337D
:10099B00C4540F4420C8834004F456800146F6DF4C
:1009AB00E4800B0102040810204080900A4DE47E85
:1009BB00019360BCA3FF543F30E509541FFEE49341
:1009CB00A360010ECF54C025E060A840B8E493A308
:1009DB00FAE493A3F8E493A3C8C582C8CAC583CA33
:1009EB00F0A3C8C582C8CAC583CADFE9DEE780BEEB
:010A6A00008B
:100A2700D083D082F8E4937012740193700DA3A35E
:100A370093F8740193F5828883E473740293686072
:060A4700EFA3A3A380DF72
:00000001FF
